:020000040000FA
:10000000803131280800AE347E1480318B1A0B1DEC
:100010000D288331B32380312F280B1A8B1C142811
:100020008F31E82780312F280B1F2F282100111E28
:1000300023282000111E2328210064088A00630859
:100040000A0080312F282100911E2F282000911EA8
:100050002F28210062088A0061080A0080317E1082
:10006000090080313328803103208031FB00E630E5
:1000700084008730850066308600003087000630B7
:100080008731F2278031B030840086308500C5305A
:1000900086000030870014308731F2278031AC3081
:1000A00084008530850050308600013087001B3089
:1000B0008731F2278031F601F701F801F901FA01E1
:1000C000203084000030850030308731F8278031BF
:1000D000A03084000030850025308731F82780313A
:1000E000203084000130850030308731F82780319E
:1000F000A03084000130850040308731F8278031FE
:10010000203084000230850040308731F8277E108F
:10011000200080318B288631112680318B170B17F8
:100120002000A801A901B001B1018731DE2780318B
:100130002000C0018431E2248031873122278031C0
:10014000200037080319A0280230D0000030D10069
:100150008531C72580318731FE2780312100E500B8
:1001600065082000B6002030D0000230D1003608EB
:10017000D200FF39031D0130D30084317524803152
:10018000EC302000D9008730DA0020308231BD22E7
:1001900080312100E50065082000B5008D30D900D0
:1001A0008730DA0020308231BD2280312100E50025
:1001B00065082000B4003408031DA80135080319A0
:1001C0002229BC30D0000030D1003508D200FF39E0
:1001D000031D0230D3008431752480312100420890
:1001E000E50065082000CD0021004308E500650812
:1001F0002000CE0021004408E50065082000CF0063
:100200004D3081313A21803120005708A500560831
:10021000A4002508803A2100E50080306502031D16
:100220001429633020002402031C1B2963302000A2
:10023000A4000030A500200024082100E500650886
:100240002000A8000030D000D1000930D2000030DA
:10025000D300BC308131D521803100302000D00066
:10026000D1000330D2000030D3004D308131D52190
:1002700080319D282000E500E301E401DC01DD017F
:10028000E201E20A650886008701203001060319B1
:100290005A296508860087010108F73ED800FF301B
:1002A00003180030D90000305902053003195802F4
:1002B0000318E2016208D800D9015808DE00590885
:1002C000DF005E085F0403196F290130D800580869
:1002D000E50740290130DC000030DD009E2965087B
:1002E000860087010108D800D9015908003A03198E
:1002F0007A29A22958082B3A03199E29063A03198C
:100300006A29A2296508860087016408D10063086C
:10031000D0000A30D2000030D300853174258131FD
:1003200020005108D90001085002D800031CD9034D
:100330005808303EE3000030593DE4000130D80059
:100340005808E5076508860087010108D03ED800F7
:10035000FF3003180030D900003059020A30031969
:1003600058020318B5290130B6290030DA00DB0144
:100370005A08E0005B08E10060086104031D82295F
:100380005C085D04031DD0296309D8006409D90005
:10039000D80A0319D90A5808D6005908D700080006
:1003A0006408D7006308D60008002000D800580869
:1003B000D4005408D9005208530403190800500807
:1003C000D400590886008701540881005008D400E1
:1003D00052085907D5005508FF3E8600870154088A
:1003E000810000305302033003195202031C08003D
:1003F0005008D400590A860087015408810050082B
:10040000D4005908023E8600870154088100500834
:10041000D40052085907D5005508FE3E86008701D2
:10042000540881005008D40052085907D5005508D7
:10043000FD3E8600870154088100003053020730DA
:1004400003195202031C08005008D4005908033E47
:1004500086008701540881005008D40052085907CB
:10046000D5005508FC3E8600870154088100003005
:100470005302093003195202031C08005909D40021
:100480005A09D500D40A0319D50A03305405D600F9
:1004900000305505D7005608D4005408D90756082F
:1004A000D2025708D33BFC30D205FF30D3055208A7
:1004B0005304031908005008D40059088600870126
:1004C000540881000130D2020030D33B0130D40007
:1004D0005408D907572A2000D5005508D4005408DD
:1004E000D8005108D7005008D6000130D2020030A1
:1004F000D33B520A031DA72A530A031DA72AD00182
:10050000D10108005608840057088500120003191D
:10051000AE2A520853040319AE2A5608840057081D
:1005200085000008D40058088600023087000108C2
:100530005406031DAE2A0130D4005408D8070130F8
:10054000D6070030D73D0130D2020030D33B5808E7
:100550008600023087000108031D822A58088600A1
:100560000230870056088400570885000008010201
:10057000D000D101031CD10308002000E00059087D
:100580005A040319012B5A08D1005908D0008531AB
:10059000E125823120005108DF005008DE00F72AF3
:1005A0005A08D1005908D0005F08D3005E08D20075
:1005B000600882316B228231200050085104031DF3
:1005C000E32A60080800590884005A0885000008DA
:1005D000DB00DC015B08D0005C08D1006008013E54
:1005E0008631702682312000DD005D08E000600861
:1005F0000319012B60088600023087000108031DE3
:10060000D02A0030080021009112E7302000D000ED
:100610000330D1008731CD278331210011125730AB
:100620002000D0000530D1008731A92783310A305E
:1006300023009F0090309D0024309E0044309B009A
:100640009C01DB302000D0000F30D1008731BB2768
:100650008331EC302000D0000F30D1008731B22739
:100660008331DC302000D0000F30D1008731C42727
:100670002000C901F901F8010830D2005208EF004A
:10068000F701F601CA012100911608002000D800E8
:100690005808D6000330D635FF3E031D4B2B563588
:1006A000203ED7005708D9005908023E8600013085
:1006B000870081015908053E86000130870000301F
:1006C000C03F0030C13FC23FC33F59080A3E8600C9
:1006D000013087000030C03FC13F59080C3E860002
:1006E000013087000030C03FC13F590A8600013009
:1006F000870001088631EB260800CE308400863062
:100700008500013F8A00003F0A008331CA3084001F
:1007100086308500013F8A00003F0A008331003A9D
:10072000031D942B0000862BC43084008630850086
:10073000013F8A00003F0A008331F2007208F30093
:10074000403020003702031808007308F200370811
:10075000A03E860001308700720881000130F2005F
:100760007208B70708000B1120006E0895002608D4
:10077000031DCD2BB9018B1222008E1120002808F9
:10078000F1007108A6006C086D04031908006D08DB
:100790008A006C080A00833108000030F200260845
:1007A000643CF100031CF2030130F3007308B90745
:1007B0003908F400F50172087506031DE12B710874
:1007C0007406031D0800B901863141260800770828
:1007D000A03E86008701810123001D1DFA2B7708AA
:1007E000A03E860087018114210060088A005F080E
:1007F0000A00833123009D1C082C7708A03E860048
:100800008701011521005E088A005D080A00843115
:100810007708A03E8600870101080319162C2100E5
:100820005C088A005B080A0084310800863159267A
:100830000800003402340034003400340034003442
:1008400000340034003400340034003400346434A4
:1008500001340134003400340034003400340034F6
:100860000034003400340034003400340034643484
:1008700001340234013400340034003400340034D4
:100880000034003400340034003400340034643464
:1008900001342000D8005108D7005008D60058086D
:1008A000D4005408D9000130D2020030D33B520AA0
:1008B0000319530A031908005608840057088500D5
:1008C0000008D4005408D5000130D6070030D73DC9
:1008D0005508D4005908860001308700540881006B
:1008E0000130D4005408D907532C20005308D900F4
:1008F0005208D8005108DB005008DA005B08D50028
:100900005A08D400DA0A0319DB0A5408860055088D
:1009100087005908D7005808D600D80A0319D90A01
:1009200056088400570885000008C03F890803194D
:1009300008007E2C20004A0803199A2C7608A03E55
:10094000860087010108F0007008C9007608A83EFB
:10095000860087010108F0007008F1000130F00006
:100960007008F607083076020318F601210091128C
:1009700001302000CA0221009116710808002000F1
:100980006F080319BF2C2100111ACB2C200050082E
:1009900023009A00DF2C111220005008D1007908A2
:1009A000B03E86008701510881000130D100510816
:1009B000F907083079020318F9010130EF0221002C
:1009C000111608007D302000D0000330D100D03057
:1009D000840086308500013F8A00003F0A00843190
:1009E000FE302000D2008630D30085313A25843194
:1009F00034302000D2008730D30085313A250800FA
:100A00002000D401D40A2030500651040319152DBA
:100A10005008F73ED200FF30513DD3000030530262
:100A20000530031952020318D4015408D200D3012F
:100A30005208D0005308D100080019302000D0001F
:100A40008430D1003030D2000030D30020308431E7
:100A5000492485312000DB015B0883314623853141
:100A600001302000DA005A08DB0703305B0203186C
:100A700008002C2D01302000B702370A03190800A6
:100A800052088400530885000008D4005408D000A0
:100A9000C630840086308500013F8A00003F0A008E
:100AA000853101302000D2070030D33D3A2D083087
:100AB00020006F020318712D7808B03E8600870170
:100AC000010823009A000130F0007008F807083090
:100AD00078020318F8010130F00070082000EF07D9
:100AE00008002100111208002000D401D501501C7B
:100AF0007D2D5208D4075308D53D0130D235D30D92
:100B0000890B7E2D0130D136D00C890B832D5008F6
:100B10005104031D772D5508D1005408D00008005A
:100B2000303022008C008D0140308E000F302100CB
:100B30008C0060308D0013308E00FF3023008E005B
:100B400050308D0033308C0024008D018C01210049
:100B5000951722009D0108000034693430341034A8
:100B60002034003400340034003401343134303463
:100B70001034203400340034003400340234613442
:100B80003034103420340034003400340034200079
:100B9000D301D40151085402031DD02D5008530233
:100BA0000318080068302000D200E430890BD62DED
:100BB000D20BD62D000001302000D3070030D43DE9
:100BC000CA2D20005108D4005008D30050088400DA
:100BD0005108850012000319F22D0130D0070030B2
:100BE000D13DE62D53085002D0005408513BD100AE
:100BF000080020005008D03ED200FF30513DD30005
:100C0000003053020A30031952020318092E013032
:100C10000A2E0030D400D5015408D0005508D10068
:100C200008008531902586318F31F42786318F3148
:100C3000F02786318731D627863187318127863163
:100C400086318626863183310323863187317527A5
:100C500008002000D70057088631D82686312000AA
:100C600057088631EB26863109302000D600560819
:100C7000D0005708873110278631503E873197279B
:100C800008008B1222008E15A0300032890B452EF1
:100C900022008E1120002808F0007008A6006C08C1
:100CA0006D04031908006D088A006C080A0086317B
:100CB000080023001908F0007708A83E8600870185
:100CC000700881000130F0007008F70708307702E3
:100CD0000318F7010130F00070082000CA0708006F
:100CE0002000D2005208860002308700010850061A
:100CF000031D7C2E5208080052088600023087002F
:100D0000D20A0108031D722E0030080021001508C8
:100D1000C039113895006830200095006830D20045
:100D20005208EE000B118B160230D0000030D100BB
:100D30008F31FA27080050302000D1005108D2002E
:100D40006230D10052085102031C0800520887315A
:100D50009727863109302000D1005108D207A02EF4
:100D6000FE34023427340734043401342734FE348B
:100D7000023427340734103401343334003400345F
:100D800000340034003400349A340434BF34043462
:100D900000340034DF340F34A9340734E73403342B
:100DA000CD3407340034003457340534033403346D
:100DB0002000D50003305502031808000930D40084
:100DC0005408D000550887311027583E860001305E
:100DD0008700811508002000D50003305502031854
:100DE00008000930D4005408D00055088731102776
:100DF000583E8600013087000111080053345934F1
:100E00005334203446344134433454344F34523410
:100E10005934203452344534533445345434003436
:100E20002000D300D201531C192F5008D1005108C3
:100E3000D2070310D00D0310D30C5308031D132F3A
:100E4000520808002000B701D1015108A03E8600D9
:100E50000130870081010130D0005008D1074030B7
:100E6000510203180800252F53344D3441345234B5
:100E7000543420344C3449344734483454342034C6
:100E800049344E34493454340034FC3020009C053D
:100E90002E0091012F00910190302E0092004030E1
:100EA000940040302F00940008002000D901590818
:100EB00086312926873101302000D8005808D9070B
:100EC0000330590203180800572FF0302000950016
:100ED0000B118B16210059085A04031908005A08EF
:100EE0008A0059080A008731080087315527873161
:100EF00085311D25873186319B26873187314527EE
:100F000008008B1021001513DA302000D0000F30BC
:100F1000D1008731A0270B1608004C3449344734E0
:100F20004834543420344F3446344634003420009E
:100F3000D0005008083E86000130870001100800EC
:100F4000200051082100DA00200050082100D900BB
:100F50000800200051082100E40020005008210072
:100F6000E3000800200051082100DE0020005008A6
:100F70002100DD000800200051082100E0002000D1
:100F800050082100DF000800200051082100DC008B
:100F9000200050082100DB0008002000510821003B
:100FA000E200200050082100E1000800FF3020008E
:100FB0009B009A01911004309C00080022000C163E
:100FC0008F31E52787318F31E22708000034003464
:100FD00000340034003400344C3445345634453445
:100FE0004C340034FE0012001E00FE0BF32F0034C0
:100FF000640080010131890BF92F0034A030080012
:101FB4000800080086315926080020004A08080055
:101FC40022008C12080022000E1308008B108731A7
:101FD4006527080023001D121D1608001930210072
:101FE40097000800F03021009900220096010800B3
:101FF40020005108ED005008EC00080000340D34B6
:0E2004001C341E341734593450340034623406
:020000040001F9
:04000E00E4FDFFF519
:00000001FF
