:020000040000FA
:1000000080314628003008007E1480318B1E09287C
:100010000A2812280B1D0D280E28122888315B2073
:10002000803144280B1E152816281E288B1C1928E1
:100030001A281E289031E120803144280B1F2128E6
:10004000222844282100111E262827283328200092
:10005000111E2B282C283328210061088A006008F3
:100060000A00803144282100911E3728382844286E
:100070002000911E3C283D28442821005F088A006A
:100080005E080A00803144287E100900803148282B
:100090009031B3208031EF009F3084009130850093
:1000A000E4308600003087000C309031F72080313A
:1000B000D5308400933085005030860001308700B1
:1000C0001B309031F7208031F001F101F201F30192
:1000D000F401F501F60155308400003085001A3036
:1000E0009031F1208031A03084000030850038301C
:1000F0009031F12080312030840001308500303093
:100100009031F1208031A0308400013085004030F2
:100110009031F12080312030840002308500403061
:100120009031F1208031A0308400023085004030D1
:100130009031F12080317E10200080319F28933152
:10014000072380318B170B17FD302000A0001030E3
:10015000A100913127218031D6302000A00012303B
:10016000A10091311E2180312000D901DA01F00176
:10017000F10191310C218031F30194319F248031C0
:10018000923180228031200060080319C828C928D4
:100190005C290230A0000030A10094314524803158
:1001A0009031B62080312000D40054082100C400D2
:1001B00020302000A0000230A100210044082000CF
:1001C000A200FF39031D0130A300963114268031AF
:1001D00067302000A9009830AA00203089313621EC
:1001E00080312000D4005408DF005F080319F9288B
:1001F000FA284229CC30A0000030A1005F08A200FC
:10020000FF39031D0230A3009631142680312100EE
:1002100052082000D40054082100D50053082000C3
:10022000D40054082100D60054082000D4005408FB
:100230002100D700D5308F31572780312000270883
:100240002100B900200026082100B8003908803AB2
:100250002000D40080305402031D31290F302100CA
:100260003802031C342935293A290F302100B800FF
:100270000030B9002000590821003806F03938064E
:100280002000D9000030A000A1000930A2000030F9
:10029000A300CC308E31B226803100302000A00087
:1002A000A1000330A2000030A300D5308E31B22669
:1002B000803192318022803121004803031D612961
:1002C00062296629C8019031B220803194316224BC
:1002D0008031003A03196D296E29C3287308031D64
:1002E00072297329B42920006303031D7829792911
:1002F000892901302100C0070030C13D143040067B
:100300004104031D842985298929C001C1012000D8
:10031000E30101309431BE248031013A031D91295B
:100320009229B029F01895299629B0290130210089
:10033000C2070030C33DE8304206033003194306CC
:10034000031DA329A429FF29C201C301F301F30A54
:100350002000E301E30A2100C001C101F201FF29ED
:100360002100C201C301FF2920006303031DB92935
:10037000BA29DB2901302100C0070030C13D7530AA
:100380004102313003194002031CC729C829DB2967
:100390000130C0070030C13D7D3041064004031DDF
:1003A000D229D329DB29C001C1012000E301F301D7
:1003B0009431DD24803101302000D4005408E2075C
:1003C0007208031DE429E529F3299031E6208031E4
:1003D000C83020006206031DEE29EF29FF29E20143
:1003E000F201F20AFF299031D5208031C830200077
:1003F0006206031DFC29FD29FF29E201F2010230FA
:1004000020006906031D052A062A302AE901DB01BE
:10041000DC010230F0060030F106F01C102A112A2F
:10042000282A9031BE2080312000590E0F39003A21
:10043000031D1B2A1C2A1F2A9031C1208031200055
:10044000E601E60AE7010330D4005408E100302A4F
:1004500091310C2180312000E701E70AE601232ACF
:100460006903031D342A352A452A0130DB07003091
:10047000DC3D00305C02C83003195B02031C412ADA
:10048000422A452ADB01DC01E901F01C482A492AFD
:10049000A62A9531A1258031013A031D502A512AFF
:1004A0007A2AEE30200059065A040319582A592A8C
:1004B0007A2A0130D4005408E80732306806031D58
:1004C000622A632AA62A59080F39D400D40A590887
:1004D0005406F0395406D90059080F39D400D40E07
:1004E000590854060F395406D900E8012100C80103
:1004F000C80AA62A9531A1258031043A031D812A14
:10050000822AA62A200059085A040319882A892A0F
:10051000A62A0130D4005408E80732306806031DCB
:10052000922A932AA62A59080F39D400D4035908CD
:100530005406F0395406D90059080F39D400D40EA6
:10054000590854060F395406D900752A200067034C
:10055000031DAB2AAC2A272B6608031DB02AB12A3B
:10056000272B6508031DB52AB62A272B6408031D0F
:10057000BA2ABB2A272B0130DB070030DC3D0030D4
:100580005C021E3003195B02031CC72AC82A192B00
:10059000DB01DC0159080F39D400D4035908540693
:1005A000F0395406D90003306102031CD82AD92A35
:1005B000DD2A0330D4005408E10003306106031D36
:1005C000E22AE32AEB2AA001A00AA101A10A013034
:1005D0009531ED258031023020006106031DF12A9E
:1005E000F22AFA2AA001A00AA101A10A003095313D
:1005F000ED25803120006103031DFF2A002B072B0E
:10060000A001A101A10A00309531ED258031200023
:100610006108031D0C2B0D2B132BA001A101003031
:100620009531ED2580312100C801C80A0130200034
:10063000E10259080F39003A031D1F2B202B272BED
:10064000E701A001A10100309531ED2580312000A6
:100650006603031D2C2B2D2BAB2B6708031D312BA1
:10066000322BAB2B6508031D362B372BAB2B6408C5
:10067000031D3B2B3C2BAB2B0130DB070030DC3D5B
:1006800000305C021E3003195B02031C482B492B0F
:10069000992BDB01DC0159080F39D400D40A590821
:1006A0005406F0395406D90004306102031C592B5A
:1006B0005A2B5B2BE10103306106031D602B612B7C
:1006C000692BA001A00AA101A10A01309531ED25F5
:1006D0008031023020006106031D6F2B702B782BB8
:1006E000A001A00AA101A10A00309531ED258031B9
:1006F00020006103031D7D2B7E2B852BA001A10112
:10070000A10A00309531ED25803120006108031DDC
:100710008A2B8B2B912BA001A10100309531ED2567
:1007200080312100C801C80A01302000D4005408DB
:10073000E107590E0F39D40059080F395406031D2B
:10074000A22BA32BAB2BE601A001A00AA101003034
:100750009531ED25803120006708031DB02BB12BAA
:10076000F72B6608031DB52BB62BF72B6503031D6E
:10077000BA2BBB2BF72B6408031DBF2BC02BF72B09
:100780000130DB070030DC3D00305C021E30031915
:100790005B02031CCC2BCD2BE12BDB01DC015908C8
:1007A0000F39D400D40A59085406F0395406D90038
:1007B00059080F39D400D40E590854060F3954067D
:1007C000D90021003C080F392000D40059080F3906
:1007D0005406031DEC2BED2BF72B59080F39D400D1
:1007E000D40E590854060F395406D900E50167089C
:1007F000031DFB2BFC2BC3286608031D002C012CBA
:10080000C3286508031D052C062CC3286403031D9B
:100810000A2C0B2CC3280130DB070030DC3D0030F4
:100820005C021E3003195B02031C172C182C2C2CA5
:10083000DB01DC0159080F39D400D40359085406F0
:10084000F0395406D90059080F39D400D40E59088C
:1008500054060F395406D90021003C080F392000F6
:10086000D40059080F395406031D372C382C432C5B
:1008700059080F39D400D40E590854060F395406BC
:10088000D900E401C328C328803146282000B800DD
:10089000B301B401B501B601B201AF01B00138082E
:1008A0000319532C542CA42C2A080319582C592C06
:1008B000A42C3808083E8600013087008119612C7D
:1008C000622C742C2A08083E860001308700811DA6
:1008D0006A2C6B2C742C3808083E86000130870087
:1008E0008115AF01AF0ACC2C2A08083E86000130E2
:1008F000870081197C2C7D2C8F2C3808083E8600BF
:1009000001308700811D852C862C8F2C2A08083EFB
:100910008600013087008115B001B00ACC2C380860
:10092000083E8600013087008119972C982CA32C53
:100930002A08083E8600013087008119A02CA12CCE
:10094000A32C00307B2ECC2C3808031DA82CA92CFE
:10095000B82C2A080319AD2CAE2CB82C2A08083E56
:100960008600013087008119B62CB72CCC2CA12C25
:1009700038080319BC2CBD2CCC2C2A08031DC12C13
:10098000C22CCC2C3808083E860001308700811923
:10099000CA2CCB2CCC2CA12C2A08923113228431C6
:1009A000003A0319D42CD52CD82C2000B201B20A5D
:1009B0002E0012082000AB002B08AC002E001308FC
:1009C0002000AB002B08AD002F0013082000AB0067
:1009D0002B08AE009131E221843120003808031940
:1009E000F22CF32C062D3808043E860001308700D7
:1009F0000108FF3EAB002B08B700B10140302E00CC
:100A000098002F00980122001D14192D2A08043E79
:100A10008600013087000108FF3EAB002B08B700BD
:100A2000B101B10A2E00980140302F009800220039
:100A30001D102000A101380886317C268431200059
:100A4000A101A10A2A0886317C26843120006D107C
:100A50006D11ED116F088731FB2784319031C7206C
:100A600084312000DD01DE013108031D382D392DD0
:100A7000442D111B3C2D3D2D3E2DED10111F412D00
:100A8000422D3E2D11134E2D121B472D482D492D61
:100A9000ED10121F4C2D4D2D492D12132130AB009E
:100AA0002B082E00980621302000AB002B082F00C9
:100AB0009806C0302000AB002B082E009406C030F2
:100AC0002000AB002B082F00940620003718692D5A
:100AD0006A2DB52D2E001A082000D5072E001B0800
:100AE0002000D63D2F001A082000D7072F001B0832
:100AF0002000D83D3208031D7E2D7F2D9A2D2E001B
:100B00001A0820003502A0002E001B082000363BEA
:100B1000A1009331F023843120002008DD07210853
:100B2000DE3D2E001B082000B6002E001A08200013
:100B3000B500F82D2F001A0820003502A0002F0064
:100B40001B082000363BA1009331F02384312000A4
:100B50002008DD072108DE3D2F001B082000B6001D
:100B60002F001A082000B500F82D2E001A082000CA
:100B7000D5022E001B082000D63B2F001A082000AB
:100B8000D7022F001B082000D83B3208031DC92DB7
:100B9000CA2DE52D2E001A0820003302A0002E00D9
:100BA0001B082000343BA1009331F0238431200046
:100BB0002008DD072108DE3D2E001B082000B400C0
:100BC0002E001A082000B300F82D2F001A0820006C
:100BD0003302A0002F001B082000343BA1009331FA
:100BE000F023843120002008DD072108DE3DDC2DC4
:100BF0003708031DFC2DFD2DFE2D6D140130B702AD
:100C0000ED1C032E042E062E6D156D14ED146D1CB7
:100C10000A2E0B2E342D9031CA20843120002C084E
:100C20002E00920020002D082E00930020002E0898
:100C30002F00930020006D1D1E2E1F2E212EFB3035
:100C40007B2EED1D242E252E272EFA307B2E2F08ED
:100C500003192B2E2C2E322E3808083E8600013028
:100C60008700811130080319362E372E3D2E2A08B1
:100C7000083E8600013087008111380892316C22CD
:100C80008431003A0319452E462E552E200038088F
:100C9000913194218431003A031D4F2E502E552E50
:100CA000200038088E310D26843120002A08923128
:100CB0006C228431003A03195E2E5F2E6E2E2000C6
:100CC0002A08913194218431003A031D682E692E3F
:100CD0006E2E20002A088E310D2684312E009601BA
:100CE0002F0096012E0097012F0097012E00111062
:100CF0002F001110A12C08002000A8002808031DB7
:100D0000822E832E842E4D2F2108031D882E892E9E
:100D10008C2EA501A601902E8030A5000030A600E3
:100D20002508A2002208A700280A860001308700B3
:100D30000108A2002708113EA300A4010730A43D2A
:100D40002308860024088700220881002808053E21
:100D50008600013087000108A2002708193EA30081
:100D6000A4010730A43D2308860024088700220838
:100D700081002708133EA200A3010730A33D2208EB
:100D800086002308870050308100FE30A20027082B
:100D9000183E860087010730873D22088105280814
:100DA000913194218631003A0319D72ED82E002F85
:100DB00020002808023E8600013087000108A200BA
:100DC0002708163EA300A4010730A43D230886008F
:100DD00024088700220881002808033E860001308D
:100DE00087000108A2002708173EA300A4010730CE
:100DF000A43D230886002408870022088100382F9C
:100E000020002708163EA200A3010730A33D2208B8
:100E100086002308870020308100280891318A212C
:100E20008631003A0319152F162F2B2F2000280882
:100E3000033E8600013087000108A2002708173E04
:100E4000A300A4010730A43D2308860024088700DE
:100E500022088100382F20002708173EA200A30196
:100E60000730A33D22088600230887002030810038
:100E70002808043E8600013087000108A200A30173
:100E80000930A235A30D890B412F2135553E86002F
:100E900087012208C03F2308C13F080020002D0819
:100EA000093E8600013087000108803AAE002D0817
:100EB0000E3E8600013087000103FF3A803AAE0201
:100EC0000318632F642F912F2D080A3E86000130EE
:100ED00087000130810741310318810A2D080A3E3D
:100EE000860001308700403FAE00413FAF00003038
:100EF0002F02413003192E02031C7F2F802FD52F84
:100F00002D080A3E8600013087000030C03FC13FF7
:100F10002D0886000130870001089731512787315D
:100F2000D52F2D08093E8600013087000108AE004C
:100F3000AF01AE1BAF032D080E3E860001308700C7
:100F40002F08803A803C031DA72F2E0801020318AA
:100F5000AA2FAB2FCC2F02302000AE002D08023E6E
:100F60008600013087002E0881002D080A3E860089
:100F7000013087000030C03FC13F2D08860001309E
:100F800087000108AE002E08A70021006D088A0026
:100F90006C080A008731D52F20002D080A3E8600F4
:100FA000013087000030C03FC13F20002D080C3EBB
:100FB0008600013087000130810741310318810A22
:100FC0002D080C3E8600013087001600403AAE0026
:100FD0001600AE04031DED2FEE2FFA2F2D080C3E48
:100FE0008600013087000030C03FC13F2D088C31A2
:100FF000DE24873108002000A00020089B000800A4
:1010000021001508C03917389500F03020009500F0
:10101000F030A20022082100E2000B118B16AF3045
:101020002000A0001030A1009131812188310800FA
:101030002000A800280897311C2788312000A40030
:101040002408A500280892316C228831003A03193F
:101050002A282B28452820002808063E8600013033
:1010600087002535553E84008501403F0002A000E1
:101070000131413F003BA1009331F0238831200032
:101080002108A7002008A60048282000A601A701E3
:1010900000302702653003192602031C502851280E
:1010A000562828089131302188315A282808913152
:1010B0003921883108000B112100620820009500B9
:1010C00021003E080F39003A031D6728682882284E
:1010D000C5018B1222008E11200059080F39F8002B
:1010E00021003E087806F0397806BE0058085904F9
:1010F00003197B287C28A12859088A0058080A006F
:101100008831A1283E080F39F8000030FA0078082D
:101110000F3CF900031CFA030130FB007B08C507F4
:101120004508FC00FD017A087D06031D9928790811
:101130007C06031D9C289D28A128C501943180248C
:101140008831080021009112C3302000A000173020
:10115000A100913115218831210011127E3020002B
:10116000A0001530A10091316F2188310A30230091
:101170009F0090309D0024309E0044309B009C01D5
:10118000AE302000A0001030A10091315D218831E7
:10119000D1302000A0001030A100913166218831AB
:1011A000CD302000A0001030A100913154218831B1
:1011B0002100CB012000EC01EB010830A200220845
:1011C0002100E3002000EA01F501F401210091165D
:1011D0000800F01CEC28ED2835299531A12588312F
:1011E000013A031DF428F5281829EE30200059068D
:1011F0005A040319FC28FD2818299031C42088318D
:10120000200059080F39A600A60A59082606F03909
:101210002606D90059080F39A600A60E5908260639
:101220000F392606D900E8012100C801C80A35296E
:101230009531A1258831043A031D1F29202935291C
:10124000200059085A0403192629272935299031E5
:10125000C1208831200059080F39A600A60359087B
:101260002606F0392606D9000A2908002000B00019
:1012700029082A0403193D293E2982292A08A100A8
:101280002908A0009331BB23893120002108AF0039
:101290002008AE0074292A08A1002908A0002F0800
:1012A000A3002E08A20030088A31332289312000A1
:1012B00020082104031D5D295E2960293008832947
:1012C000290884002A0885000008AB00AC012B081F
:1012D000A0002C08A1003008013E9331A1238931E0
:1012E0002000AD002D08B0003008031978297929B5
:1012F000822930088600023087000108031D8129F9
:1013000082294B29003008002000AA002A08023E4A
:10131000860001308700010803198F299029C5290B
:101320002A08033E860001308700403FA800413F65
:10133000A900A936A80CA936A80C2A08033E8600E5
:10134000013087002808810241312908813B7F3123
:101350002A0A860001308700010894312824893147
:1013600020002408A8002508A900A936A80CA93641
:10137000A80C2A08033E8600013087002808810750
:1013800041312908813D7F31D7292A0A8600013061
:101390008700010894312824893120002A08033E5F
:1013A0008600013087002408C03F2508C13F08009F
:1013B0002000B4003408B2000330B235FF3E031DF4
:1013C000DD293235203EB3003308B500350A8600EA
:1013D000013087000108923102228931003A031955
:1013E000F229F329322A2000350A860001308700CD
:1013F0000108933153238931003A0319002A012A45
:10140000322A2000350892313622893120003508F1
:101410008C315324893120003508023E860001308A
:10142000870003300102031C162A172A1F2A3508D9
:10143000860001308700010897315127893120004B
:101440003508B2003208AD003508023E8600013092
:1014500087000135E43E86008701413F8A00403F16
:101460000A008A3108002000A5002508A4002408ED
:10147000A8002108A7002008A6000130A202003021
:10148000A33B220A031D482A230A031D482A492A8E
:10149000582AA001A1018E2A0130A4002408A8071F
:1014A0000130A6070030A73D0130A2020030A33B67
:1014B000280886000230870001080319602A612A83
:1014C000802A260884002708850012000319692A4B
:1014D0006A2A802A2208230403196F2A702A802A84
:1014E00026088400270885000008A4002808860034
:1014F000023087000108240603197F2A802A4C2A1B
:101500002808860002308700260884002708850006
:1015100000080102A000A101031CA1030800200093
:101520002D080A3E860001308700403FAE00413F53
:10153000AF0000302F02093003192E020318A12A30
:10154000A22AA72A2D089631BD268A31AB2A2D085A
:101550008C31DE248A3120002D080A3E86000130BD
:1015600087000130810741310318810A2D080A3EA6
:10157000860001308700403FAE00413FAF000030A1
:101580002F02103003192E02031CC72AC82AF42A7E
:101590002D08053E860001308700403FAE00413FE8
:1015A000AF00423FB000433FB1000430B136B00C51
:1015B000AF0CAE0C890BD62A2D08033E86000130F5
:1015C00087002E08C03F2F08C13F2D08023E86002D
:1015D000013087008101810A2D080A3E8600013012
:1015E00087000030C03FC13F080020002D080A3EA0
:1015F000860001308700403FAE00413FAF0007301A
:101600002F02D03003192E02031C072B082B202B8E
:101610002D088600013087000108973151278A3153
:1016200020002D088600013087000108AE002E083A
:10163000A70021006B088A006A080A008B31602B22
:101640002D08093E8600013087000108803AAE006F
:101650002D080E3E8600013087002D080E3E8400C6
:101660000130850000360102803AAE020318392BA2
:101670003A2B602B2D08023E860001308700810145
:10168000810A2D080A3E8600013087000030C03FE5
:10169000C13F2D080C3E860001308700FF30C03F5F
:1016A000FB30C13F2D088600013087000108AE00E5
:1016B0002E08A70021006B088A006A080A008B31F7
:1016C00008002000C9000530C7004708C8004908C5
:1016D000031D6B2B6C2B7D2B4608031D702B712B70
:1016E0007D2BFF30D12B01302000C8024808031D9C
:1016F0007A2B7B2B7D2BFC30D12B4608C70047086B
:10170000AA004908843146248B31003A031D892BF5
:101710008A2B732B2000490803198F2B902B942BB5
:101720004908883118208B31200046080319992B6D
:101730009A2B9E2B4608883118208B3120004908AF
:10174000923113228B31003A0319A72BA82BB22B0D
:1017500020004908913194218B31003A031DB12BAF
:10176000B22BC62B20004608923113228B31003A4F
:101770000319BB2BBC2BD02B2000460891319421A0
:101780008B31003A0319C52BC62BD02B20004608FD
:10179000C7004708B90049088B31D2238B31D12BC0
:1017A000003008002000BC005E08BB005D08BA00E5
:1017B000BB36BA0CBB36BA0C5D083A07BD005E08F2
:1017C0003B3DBE006F08BA003A08BF005608C20091
:1017D0005508C1005808C4005708C300C501450892
:1017E0006D3E840098300318013E85000008BA0061
:1017F0003A08EF07AE306F020318FF2B002C042CC1
:10180000AE30BA003A08EF070530BA003A08C00017
:10181000132C01302000C0024008031D102C112C95
:10182000132CFC30522C3908BA003A08AA003C08A4
:10183000843146248B31003A031D1F2C202C092CA7
:1018400020005E083E02031D272C5D083D020318A0
:101850002A2C2B2C3B2C5E08BE005D08BD006F08B7
:10186000BA003A08BF005608C2005508C10058081F
:10187000C4005708C3000130BA003A08C507053054
:101880004502031C442C452CEF2B3F08BA003A08B4
:10189000EF004208D6004108D5004408D8004308AC
:1018A000D700003008002000AA002A08053E860064
:1018B00001308700403FA000413FA100423FA2000D
:1018C000433FA3000430A336A20CA10CA00C890B4B
:1018D000632C2A08033E860001308700403FA400A5
:1018E000413FA5002408A6002508A700A801A901DA
:1018F0002008A6022108A73B2208A83B2308A93BF1
:101900002908AE002808AD002708AC002608AB0067
:101910002B08A0002C08A1002D08A2002E08A3006F
:101920002A080F3E860001308700010A9B2CA3374E
:10193000A20CA10CA00C890B972C2308AE00220846
:10194000AD002108AC002008AB00AE1BB52C2E0862
:10195000031DB62C2D08031DB62C2C08031DB62C18
:1019600080302B02031CB52CB62CBE2C0030AE00F0
:101970000030AD000030AC007F30AB00AE1FCB2C90
:1019800080302B02FF302C3BFF302D3BFF302E3BB5
:101990000318CB2CCC2CD42CFF30AE00FF30AD0084
:1019A000FF30AC008030AB002B08A0002A08093EB5
:1019B0008600013087002008810008002000A60072
:1019C0008B1FE32CE42C2B2D8B132608053E860061
:1019D00001308700403FA000413FA100423FA200EC
:1019E000433FA3000430A336A20CA10CA00C890B2A
:1019F000F32C2608053E860001308700200881026E
:101A000041312108813B41312208813B413123088A
:101A1000813B7D312608033E860001308700403F30
:101A2000A000413FA1002008A2002108A300A401BA
:101A3000A5012608053E860001308700220881079F
:101A400041312308813D41312408813D4131250840
:101A5000813D8B176F2D2608053E860001308700DB
:101A6000403FA000413FA100423FA200433FA300EE
:101A70000430A336A20CA10CA00C890B392D26082A
:101A8000053E86000130870020088102413121088F
:101A9000813B41312208813B41312308813B7D312B
:101AA0002608033E860001308700403FA000413FEA
:101AB000A1002008A2002108A300A401A501260876
:101AC000053E860001308700220881074131230846
:101AD000813D41312408813D41312508813D080087
:101AE0002000CD004D08CA00CB01CA35CB0D7230A5
:101AF0004A07840098304B3D85000008CC004C0814
:101B0000CF004D08CA00CB01CA35CB0D73304A0750
:101B1000840098304B3D85000008CC004C08D00074
:101B20005008CA004A08C6004F088B3161238D3126
:101B30002000CB004B08CE00E72D4F0892316C22DD
:101B40008D31003A0319A52DA62DC12D20006E0858
:101B5000031DAB2DAC2DB02D4F08963165268D3170
:101B600020004F08913142218D3120004F0886001E
:101B7000013087000108CA004A08A0009031B12056
:101B80008D312000500892316C228D31003A0319BA
:101B9000CA2DCB2D0A2E20006E08031DD02DD12D6D
:101BA000D52D5008963165268D3120005008913191
:101BB00042218D3120005008860001308700010845
:101BC000CA004A08A0009031B1208D310A2E4E087B
:101BD000CA00CB01CA1BCB034B08003A0319F42DF2
:101BE000FF3A0319F92D0A2E4A08003A03199D2DD0
:101BF0000A2E4A08FB3A03190A2E073A03190A2E3D
:101C0000013A03190A2E033A03190A2E013A03195D
:101C10000A2E0A2E20004E0808002000A9002908DC
:101C200097311C278E312000A4002408A800290821
:101C300091318A218E31003A031D1F2E202E592EFC
:101C400020002835553E86008701403FA400413FD3
:101C5000A5002908043E8600013087000108A6007F
:101C6000A7010930A635A70D890B322E25082702BA
:101C7000031D3C2E2408260203183F2E402E542E0E
:101C80000130A4002908053E8600013087002408A1
:101C900081070F300102031C4E2E4F2EB12E290852
:101CA0009131F2218E31B12E29089131F2218E31FC
:101CB000B12E20002908043E86000130870001086B
:101CC000A400A501A435A50D2908063E8600013013
:101CD00087002835553E84008501403F0002A00062
:101CE0000131413F003BA1009331F0238E312000B0
:101CF00025082102031D7E2E240820020318812EB0
:101D0000822E902E2030A4002908023E8600013049
:101D100087002408810029089131D3218E31B12E0A
:101D20000230A4002908033E860001308700240801
:101D300081072908033E8600013087002030010218
:101D4000031CA32EA42EB12E2030A4002908023E8D
:101D50008600013087002408810029089131D321B1
:101D60008E3108002000A8002808A4002408A9003B
:101D700022082304031DBD2EBE2EBF2E562F200881
:101D8000A400290886008701240881002008A400F7
:101D900022082907A5002508FF3E860087012408A0
:101DA0008100003023020330031922020318D92EC8
:101DB000DA2EDB2E562F2008A400290A8600870180
:101DC000240881002008A4002908023E860087011B
:101DD000240881002008A40022082907A50025085E
:101DE000FE3E86008701240881002008A400220806
:101DF0002907A5002508FD3E8600870124088100EB
:101E0000003023020730031922020318082F092F7C
:101E10000A2F562F2008A4002908033E86008701B8
:101E2000240881002008A40022082907A50025080D
:101E3000FC3E86008701240881000030230209301F
:101E4000031922020318252F262F272F562F290981
:101E5000A4002A09A500A40A0319A50A0330240531
:101E6000A60000302505A7002608A4002408A9071D
:101E70002608A2022708A33BFC30A205FF30A305D9
:101E8000502F2008A400290886008701240881001B
:101E90000130A2020030A33B0130A4002408A907AE
:101EA00022082304031D552F562F412F0800200020
:101EB000B500B301B401AC01AD01622F0130A8003F
:101EC0002808B507B201B20A35088600870120301C
:101ED000010603196C2F6D2F812F350886008701AD
:101EE0000108F73EA800FF3003180030A9000030B9
:101EF0002902053003192802031C7F2F802F812F10
:101F0000B2013208A800A9012808AE002908AF00D4
:101F10002E082F04031D8D2F8E2F5E2F982F01303A
:101F2000AC000030AD000130A8002808B507C82F6C
:101F30003508860087010108A800A9012908003A90
:101F40000319A32FC82F28082B3A0319932F063AF9
:101F500003198F2FC82F3508860087013408A10088
:101F60003308A0000A30A2000030A30095313C25C0
:101F70008F3120002108A90001082002A800031CBD
:101F8000A9032808303EB3000030293DB400932F48
:101F90003508860087010108D03EA800FF300318ED
:101FA0000030A900003029020A3003192802031C5E
:101FB000DA2FDC2F0130DD2F0030AA00AB012A0818
:101FC000B0002B08B10030083104031DE82FE92FC1
:101FD000AB2F2C082D04031DEE2FEF2FFB2F330901
:101FE000A8003409A900A80A0319A90A2808A6000C
:101FF0002908A700FF2F3408A7003308A60008000F
:10215A00080008000800080008000800AE347408E7
:10216A000800A030080022008C12080022000E137A
:10217A00080022000C12080022008C160800220017
:10218A000E17080020001C15080020001C1108006A
:10219A00933139239031080023001D121D160800BF
:1021AA0091310C2190310800933187239031080036
:1021BA0019302100970008008B10923124229031A7
:1021CA00080022000E170C128C160800F0302100AD
:1021DA009900220096010800640080010131890BF0
:1021EA00F2280034FE0012001E00FE0BF82800340C
:1021FA009131C52190318831E92090310800FF30B2
:10220A0020009B009A01911004309C0008002200D3
:10221A000C169031BB2091319031B82091310800D1
:10222A00200021082100DF00200020082100DE0014
:10223A000800200021082100EB00200020082100CE
:10224A00EA000800200021082100ED0020002008F3
:10225A002100EC0008002000A0002008083E8600AB
:10226A0001308700811408002000A0002008083EE1
:10227A00860001308700811008002000A000200895
:10228A00083E860001308700011408002000A000E3
:10229A002008083E8600013087000110080020004F
:1022AA0021082200EC00200020082200EB00080090
:1022BA00200021082100DD00200020082100DC0088
:1022CA000800200021082200EE0020002008220039
:1022DA00ED000800200021082100E100200020086C
:1022EA002100E0000800200021082100DB00200076
:1022FA0020082100DA000800200021082100D90066
:10230A00200020082100D80008002000A000200892
:10231A00083E860001308700010E013908002000BE
:10232A00A0002008083E860001308700010C890CB5
:10233A00013908008F340A344E340734F5340A342C
:10234A00B0341034B0341034B13410348B1021004E
:10235A001513AD302000A0001030A1009131782172
:10236A0091310B16080092315A2291319431DD24B1
:10237A00913195311C2591319131E2219131080039
:10238A009531A1259131023A031DCC29CD29D229B3
:10239A0001302000A6002608E90708002000A00056
:1023AA002008083E86000130870001152008083EF3
:1023BA0086000130870001120800FC3020009C05CD
:1023CA002E0091012F00910190302E009200403092
:1023DA00940040302F00940008002000A00020083C
:1023EA00083E86000130870001162008033E860059
:1023FA00013087008101810A08002000A500093008
:10240A00A4002408A0002508923194229231583E53
:10241A008600013087000108013908002000A00069
:10242A002008031D192A1A2A1C2A0030232A2008E8
:10243A00083E860001308700010C01390800F0309F
:10244A00200095000B118B1621005A085B04031912
:10245A002F2A302A352A5B088A005A080A00923144
:10246A0008002000AB008B1F3B2A3C2A432A8B130F
:10247A002B088931842192318B17472A2B088931FD
:10248A008421923108002000B70137088931D82108
:10249A00923101302000B6003608B7070330370200
:1024AA00031C582A592A4A2A08002000A901290887
:1024BA009231EE22923101302000A8002808A907A3
:1024CA0003302902031C6A2A6B2A5C2A08002000AE
:1024DA00A10021080319722A732A7E2A2108083EBC
:1024EA00860001308700010CA000A00C200C0139E5
:1024FA007F2A003008002000E001A1012108A03E47
:10250A0086000130870081010130A0002008A10760
:10251A0040302102031C922A932A832A08002000B1
:10252A00A300A201231C9A2A9B2A9F2A2008A10001
:10253A002108A2070310A00D0310A30C2308031DF2
:10254A00A72AA82A972A220808002000A5000330F3
:10255A0025020318B12AB22ABF2A0930A400240886
:10256A00A0002508923194229231583E860001300B
:10257A008700011108002000A50003302502031876
:10258A00C72AC82AD52A0930A4002408A000250889
:10259A00923194229231583E86000130870081158B
:1025AA000800EE30200059065A040319DD2ADE2AF3
:1025BA00E12A9031BB209231200059085A040319AC
:1025CA00E72AE82AEB2A9031B82092312000E80164
:1025DA0008002000A70027089231C022923120006B
:1025EA0027089231AA22923109302000A600260833
:1025FA00A0002708923194229231503E91314B210A
:10260A009231080094310C2493319031EB209331AC
:10261A009031DD2093319131042193319131AB21F5
:10262A0093318831002093318831A220933191313E
:10263A00B8219331080020002008D03EA200FF30C4
:10264A00213DA300003023020A3003192202031C91
:10265A002F2B312B0130322B0030A400A501240886
:10266A00A0002508A100080023001908F70020008F
:10267A006A08A83E86008701770881000130F700C2
:10268A007708EA0708306A02031C4C2B4D2B4E2BA5
:10269A00EA010130F7007708F40708002000A500D6
:1026AA000330250203185A2B5B2B6B2B0930A4002D
:1026BA002408A0002508923194229331583E8600BE
:1026CA0001308700010C890C01396C2B003008009D
:1026DA002000D20152088D3170259331003A031936
:1026EA00772B782B7A2B0030862B01302000D100F3
:1026FA005108D20702305202031C842B852B6F2B00
:10270A00013008002000A4012408A3000330A335E7
:10271A00FF3E031D8C2B2335203E963191269331A3
:10272A0001302000A3002308A40703302402031C5D
:10273A009F2BA02B892B08002000A20022088600CC
:10274A000230870001082006031DAC2BAD2BAF2BEE
:10275A002208BA2B2208860002308700A20A010842
:10276A00031DB82BB92BA32B003008002000210829
:10277A00A4002008A300C52B0130A0070030A13D0A
:10278A0020088400210885001200031DCD2BCE2BC2
:10279A00C12B23082002A0002408213BA100080025
:1027AA0000346934303410342034003400340034B6
:1027BA0000340134313430341034203400340034DD
:1027CA00003400340234613430341034203400349C
:1027DA0000340034003420002108803AA2008030FE
:1027EA002202031DFA2B013020020318FD2BFE2BB7
:1027FA000B2C20002009A2002109A300A20A031918
:10280A00A30A2208A0002308A1000B2C08003030DC
:10281A0022008C008D0140308E000F3021008C0088
:10282A0060308D0013308E00FF3023008E00503050
:10283A008D0033308C0024008D018C012100951706
:10284A0022009D0108002000A70003302702031878
:10285A002F2C302C422C0930A6002608A00027086D
:10286A00923194229431563E860001308700403FCF
:10287A002000A400413FA500442CA401A5010800A2
:10288A002000A301A401572C68302000A200E430E4
:10289A00890B4D2CA20B4D2C000001302000A30700
:1028AA000030A43D21082402031D5D2C20082302C8
:1028BA00031C602C612C492C0800F601F60A93319E
:1028CA006D239431003A031D6B2C6C2C6E2C003056
:1028DA007F2C923148229431803102209431200099
:1028EA00D3005308F60095311C2594319031D92034
:1028FA009431013008008B1222008E15A03000326C
:10290A00890B842C22008E11200059080F39F700F8
:10291A0021003E087706F0397706BE0058085904A8
:10292A000319982C992C9E2C59088A0058080A00D9
:10293A009431080089302000A0001730A1003C30F3
:10294A00840098308500013F8A00003F0A009431D4
:10295A0044302000A2009830A3009431FC24943122
:10296A0056302000A2009830A3009431FC24943100
:10297A0008002000A100033021020318C52CC62C30
:10298A00DB2C2108A0000330A035FF3E031DC92C13
:10299A002035223E860001308700023001060319E5
:1029AA00D72CD92C0130DA2C0030DC2C003008006E
:1029BA0000302000A0009830A1003030A200003082
:1029CA00A30020309631EC2694312000AB012B086D
:1029DA0097315127943101302000AA002A08AB0709
:1029EA0003302B02031CFA2CFB2CEC2C0800132DB1
:1029FA0022088400230885000008A4002408A000F7
:102A0A003230840098308500013F8A00003F0A0076
:102A1A00953101302000A2070030A33D013020008B
:102A2A00E002600A031D1A2D1B2DFD2C08005030F0
:102A3A002000A1002108A2006230A1002208210280
:102A4A000318282D292D2A2D3B2D220891314B219F
:102A5A00953109302000A1002108A2076230A100A7
:102A6A002208210203183A2D3B2D2A2D08002000A6
:102A7A00A401A501201C422D432D472D2208A4079D
:102A8A002308A53D0130A235A30D890B482D01303D
:102A9A00A136A00C890B4D2D20082104031D562DAB
:102AAA00572D3F2D2508A1002408A000080020006A
:102ABA00A401A40A2030200621040319652D662DDD
:102ACA00762D2008F73EA200FF30213DA3000030FA
:102ADA002302053003192202031C742D752D762D4D
:102AEA00A4012408A200A3012208A0002308A1002F
:102AFA0008000830210063020318842D852D9F2DBC
:102B0A0020006B08B03E86008701010823009A0066
:102B1A000130F70077082000EB0708306B02031C2E
:102B2A00972D982D992DEB010130F7007708210098
:102B3A00E307A02D111208002000A401A501250811
:102B4A009431BE249531013A031DAC2DAD2DB92D1A
:102B5A0001302000A200250AB32DA235890BB22D1F
:102B6A002208A3002308A40401302000A20022089E
:102B7A00A50703302502031CC32DC42DA42D240848
:102B8A00080074080319CA2DCB2DC62D7508A03E5E
:102B9A00860087010108F70077082100CB00750835
:102BAA00A83E860087010108F7007708F80001307F
:102BBA00F7007708F50708307502031CE52DE62DA6
:102BCA00E72DF50191120130F402911678080800F8
:102BDA002000A20022080319F32DF42DF82D9031BC
:102BEA00C4209531FB2D9031BB209531200020085F
:102BFA000319002E012E042E22000C12062E22008A
:102C0A000C162000210803190B2E0C2E102E9031C1
:102C1A00C1209531132E9031B8209531080020003B
:102C2A002308A9002208A8002108AB002008AA004E
:102C3A002B08A5002A08A400AA0A0319AB0A24082B
:102C4A008600250887002908A7002808A600A80AE0
:102C5A000319A90A26088400270885000008C03F2E
:102C6A008908031D392E3A2E1D2E080021006308FB
:102C7A000319402E412E3B2E111A442E452E4A2E60
:102C8A002000200823009A00622E1112200020083A
:102C9A00A1006C08B03E860087012108810001303E
:102CAA00A1002108EC0708306C02031C5D2E5E2E81
:102CBA005F2EEC0101302100E30221001116080009
:102CCA002000A600260897311C2796312000A40070
:102CDA002408A5008B1F722E732E832E8B13253585
:102CEA00553E860087012608063E8400013085008D
:102CFA00403F803F413F813F8B17902E2535553EFF
:102D0A00860087012608063E840001308500403F80
:102D1A00803F413F813F08002000A2002208023E76
:102D2A0086000130870002300106031D9D2E9E2E6B
:102D3A00BC2E22080A3E8600013087000130810736
:102D4A0041310318810A22080A3E860001308700B1
:102D5A0016000104031DB22EB32EBC2E22080A3E11
:102D6A00860001308700FF30C03FFF30C13F0800B6
:102D7A002000AC002C0A860001308700010894313B
:102D8A002824963120002408A8002508A900AA01B1
:102D9A00AB012C08053E8600013087002808C03F99
:102DAA002908C13F2A08C23F2B08C33F2C08053E09
:102DBA00860001308700043081354131810D41316F
:102DCA00810D4131810D7D31890BE12E08002000F2
:102DDA00A8002108A6002008A5002808A4002408A5
:102DEA00A9000F2F25088400260885000008A400E2
:102DFA002408A7000130A5070030A63D2708A40033
:102E0A002908860001308700240881000130A400C7
:102E1A002408A9070130A2020030A33B220A031D9D
:102E2A001A2F230A031D1A2F1B2FF72E0800200022
:102E3A00A200A3012308A000A101A035A10D7230B0
:102E4A00200784009830213D850000082206031DD2
:102E5A002F2F302F322F0030502F2308A000A1012E
:102E6A00A035A10D7330200784009830213D8500DC
:102E7A0000082206031D422F432F452F0130502FF1
:102E8A000130A0002008A30702302302031C4E2FA2
:102E9A004F2F1F2F302F08002000A8002808A60057
:102EAA000330A635FF3E031D562F2635203EA700C8
:102EBA002708A9002908023E8600013087008101FF
:102ECA002908053E8600013087000030C03F0030E7
:102EDA00C13FC23FC33F29080A3E8600013087002E
:102EEA000030C03FC13F29080C3E860001308700F0
:102EFA000030C03FC13F290A86000130870001081F
:102F0A009231AA22973108003A308400983085001D
:102F1A00013F8A00003F0A009731942F00003630A3
:102F2A00840098308500013F8A00003F0A009731EB
:102F3A00003A0319A12FA22F932F30308400983022
:102F4A008500013F8A00003F0A009731F90079089D
:102F5A00FA004030200060020318B42FB52FC22FA8
:102F6A007A08F9006008A03E8600013087007908D7
:102F7A0081000130F9007908E007080020006A089A
:102F8A00A03E86008701810123001D1DCD2FCE2F73
:102F9A00DA2F20006A08A03E8600870181142100EA
:102FAA005D088A005C080A00973123009D1CDE2F09
:102FBA00DF2FEB2F20006A08A03E8600870101154B
:102FCA0022006E088A006D080A00973120006A08FC
:102FDA00A03E8600870101080319F42FF52FFC2F64
:102FEA0022006C088A006B080A009731FF2F933180
:102FFA003923973108000034023400340034003495
:10300A000034003400340034003400340034003416
:10301A0000346434013401340034003400340034A0
:10302A0000340034003400340034003400340034F6
:10303A00003464340134023401340034003400347E
:10304A0000340034003400340034003400340034D6
:10305A00003464340134C63415343B341634003435
:10306A000034B43410346F341134C3341734153483
:10307A001134003400347E341534A2340834533405
:10308A0059345334203446344134433454344F345D
:10309A005234593420345234453453344534543438
:1030AA00003453344D3441345234543420344C3483
:1030BA004934473448345434203449344E3449343A
:1030CA00543400344C344534563445344C3400348A
:1030DA0000340D341C341E3417345934503400343F
:0230EA0062344E
:020000040001F9
:04000E00E4FDFFF519
:00000001FF
